:100000002BC03AC039C038C037C036C035C034C044
:1000100033C032C031C031C063C02EC02DC02CC02F
:100020002BC02AC029C00D0A7265637620646174F2
:10003000613A000D0A7761697420666F722064610D
:1000400074612E2E2E000D0A68656C6C6F20776B24
:1000500078626F6F7421000011241FBECFE5D4E0D9
:10006000DEBFCDBF21E0A0E6B0E001C01D92A53605
:10007000B207E1F7BCD0D0C0C3CF1F920F920FB62A
:100080000F9211242F933F934F935F938F939F93DE
:10009000EF93FF932BB13CB128718091620090E007
:1000A00001968F7799274091610050E0841795075A
:1000B00039F080936200FC01EB59FF4F308301C09F
:1000C00022E020936000FF91EF919F918F915F91CB
:1000D0004F913F912F910F900FBE0F901F90189549
:1000E0001F920F920FB60F9211248F939F93EF934D
:1000F000FF939091640080916300981771F0809154
:10010000630090E001968F77992780936300FC014C
:10011000EB51FF4F80818CB901C05598FF91EF9151
:100120009F918F910F900FBE0F901F901895109276
:10013000640010926300109262001092610097FFB9
:1001400003C022E02BB99F7790BD89B988E98AB9AD
:1001500086E880BD089590916200809161009817B3
:10016000A1F08091610090E001968F7799278093AC
:100170006100FC01EB59FF4F20818091600090E00D
:10018000982F8827820F911D089580E091E00895AF
:100190002091640030E02F5F3F4F2F77332740914D
:1001A000630050E024173507D1F3F901EB51FF4FFD
:1001B000808320936400559A0895CF93DF93FC01C8
:1001C0008491EF012196882319F0E2DFFE01F8CF38
:1001D000DF91CF910895809162002091610090E0BD
:1001E00080589F4F821B91098F77992708957894A3
:1001F00083E390E09CDF86E490E0DFDF83E390E040
:10020000DCDFE9DFC82FCC23E1F386E290E0D5DF25
:0C021000A2DFBEDFC150F7CFF894FFCF93
:00000001FF
